:020000040800F2
:10000000A807002055240008FD1D0008FF1D00085A
:10001000031E0008071E00080B1E00080000000059
:100020000000000000000000000000000F1E00089B
:10003000111E000800000000131E0008151E000815
:100040006F2400086F2400086F2400086F24000844
:100050006F2400086F2400086F2400086F24000834
:100060006F2400086F2400086F2400086F24000824
:100070006F2400086F2400086F2400086F24000814
:100080006F2400086F2400086F2400086F24000804
:100090006F2400086F2400086F2400086F240008F4
:1000A0006F2400086F2400086F2400086F240008E4
:1000B0006F2400086F2400086F2400086F240008D4
:1000C0006F2400086F2400086F2400086F240008C4
:1000D0006F240008C92300086F2400086F2400085B
:1000E0006F2400086F2400086F2400086F240008A4
:1000F0006F2400086F2400086F2400086F24000894
:100100006F2400086F2400086F2400086F24000883
:100110006F2400086F2400086F2400086F24000873
:100120006F2400086F2400086F2400086F24000863
:1001300000F002F800F03AF80AA090E8000C8244BF
:100140008344AAF10107DA4501D100F02FF8AFF29C
:10015000090EBAE80F0013F0010F18BFFB1A43F0A5
:1001600001031847A8460000C8460000103A24BF03
:1001700078C878C1FAD8520724BF30C830C144BF0C
:1001800004680C607047000000230024002500264E
:10019000103A28BF78C1FBD8520728BF30C148BFEA
:1001A0000B6070471FB51FBD10B510BD03F076FE84
:1001B0001146FFF7F7FF01F09DFD03F094FE03B435
:1001C000FFF7F2FF03BC02F0A1F800002DE9FC5F8D
:1001D0004FF00A0A51E0FE4881684FF0804004F079
:1001E00049FA834604F0FAF980460022F94B03F0FD
:1001F0005FFFCDE90001F849886804F0EFF9064691
:10020000DDE9002303F0ACFE044603F077FEF2497B
:100210008860886804F00EFA84B2204601F01AFF64
:10022000EB4841694FF07E5004F024FA834604F015
:10023000D5F90022E74BCDE9000103F039FF06466E
:100240000F46E549486904F0C9F9804632463B4605
:1002500003F086FE044603F051FEDF494861486919
:1002600004F0E8F984B2204601F095FF322002F054
:1002700020F8AAF1010000F0FF0ABAF1000FAADC91
:100280004FF00A0A2CE0D24881684FF07E5004F00B
:10029000F1F9834604F0A2F906460022CD4B03F0A3
:1002A00007FF04460D46CC49886804F097F980465C
:1002B00022462B4604F0A8F8CDE9000103F01EFE0B
:1002C000C5498860886804F0B5F984B2204601F019
:1002D000C1FE322001F0EDFFAAF1010000F0FF0A9B
:1002E000BAF1000FCFDC4FF00A0A9EE0B84801686F
:1002F0004FF07E5004F0BEF9834604F06FF90022FF
:10030000B44BCDE9000103F0D3FE80468946B249E3
:10031000086804F063F9064642464B4604F074F858
:10032000044603F0EBFDAC490860086804F082F96C
:1003300084B2204601F0A4FEA54841684FF07E50EB
:1003400004F098F9834604F049F906460022A14BCF
:1003500003F0AEFE804689469F49486804F03EF9A6
:1003600042464B46CDE9000104F04EF8044603F046
:10037000C5FD99494860486804F05CF984B220469C
:1003800001F0DDFE9248C1684FF07E5004F072F932
:10039000834604F023F9804600228E4B03F088FE4A
:1003A00006460F468C49C86804F018F932463B46A9
:1003B000CDE9000104F028F8044603F09FFD8649CA
:1003C000C860C86804F036F984B2204601F0A1FE86
:1003D0007F4801694FF07E5004F04CF9834604F0E9
:1003E000FDF800227B4BCDE9000103F061FE0446DD
:1003F0000D467949086904F0F1F8064622462B4675
:1004000004F002F8804603F079FD73490861086939
:1004100004F010F984B2204601F0A7FE0F2001F08D
:1004200048FFAAF1010000F0FF0ABAF1000F3FF700
:100430005DAF4FF00A0A51E0654881684FF07E5089
:1004400004F018F9834604F0C9F806460022614B0F
:1004500003F02EFECDE900015F49886804F0BEF884
:100460000446DDE9002303F0CFFF804603F046FD9C
:1004700059498860886804F0DDF884B2204601F0AC
:10048000E9FD534841694FF07E5004F0F3F883468C
:1004900004F0A4F8804600224E4B03F009FE064605
:1004A0000F464D49486904F099F832463B46CDE97C
:1004B000000103F0A9FF044603F020FD464948610E
:1004C000486904F0B7F884B2204601F064FE322097
:1004D00001F0EFFEAAF1010000F0FF0ABAF1000FEF
:1004E000AADCBDE8FC9F2DE9FC5F4FF00A0A51E051
:1004F000374881684FF07E5004F0BCF8834604F022
:100500006DF880460022334B03F0D2FDCDE90001A7
:100510003149886804F062F80646DDE9002303F0FB
:1005200073FF044603F0EAFC2B498860886804F0F6
:1005300081F884B2204601F08DFD254841694FF0D5
:10054000804004F097F8834604F048F80022214BDD
:10055000CDE9000103F0ACFD06460F461E4948698F
:1005600004F03CF8804632463B4603F04DFF04461B
:1005700003F0C4FC18494861486904F05BF884B290
:10058000204601F008FE322001F093FEAAF101009E
:1005900000F0FF0ABAF1000FAADC4FF00A0A33E0BC
:1005A0000B4841694FF07E5004F064F8834604F034
:1005B00015F806460022074B03F07AFD04460D4667
:1005C0000549486904F00AF8804622462B4605E0B2
:1005D00030000020008056400000002003F0C0FCE6
:1005E000CDE9000103F08AFCFE494861486904F046
:1005F00021F884B2204601F0CEFD322001F059FEF0
:10060000AAF1010000F0FF0ABAF1000FC8DC4FF0B8
:10061000140A9EE0F44801684FF07E5004F02AF876
:10062000834603F0DBFF0022F04BCDE9000103F02D
:100630003FFD80468946EB49086803F0CFFF064638
:1006400042464B4603F08CFC044603F057FCE54958
:100650000860086803F0EEFF84B2204601F010FD48
:10066000E14841684FF07E5004F004F8834603F0FF
:10067000B5FF06460022DD4B03F01AFD8046894691
:10068000D849486803F0AAFF42464B46CDE900012D
:1006900003F066FC044603F031FCD2494860486828
:1006A00003F0C8FF84B2204601F049FDCE48C1687E
:1006B0004FF07E5003F0DEFF834603F08FFF80464D
:1006C0000022CA4B03F0F4FC06460F46C549C86831
:1006D00003F084FF32463B46CDE9000103F040FCC5
:1006E000044603F00BFCBF49C860C86803F0A2FFD2
:1006F00084B2204601F00DFDBB4801694FF07E50E9
:1007000003F0B8FF834603F069FF0022B74BCDE941
:10071000000103F0CDFC04460D46B249086903F020
:100720005DFF064622462B4603F01AFC804603F086
:10073000E5FBAC490861086903F07CFF84B2204600
:1007400001F013FD0F2001F0B4FDAAF1010000F04B
:10075000FF0ABAF1000F3FF75DAF4FF00A0A51E010
:10076000A14841694FF07E5003F084FF834603F0B7
:1007700035FF064600229D4B03F09AFCCDE90001AF
:100780009849486903F02AFF0446DDE9002303F095
:10079000E7FB804603F0B2FB92494861486903F0E9
:1007A00049FF84B2204601F0F6FC8F4881684FF083
:1007B0007E5003F05FFF834603F010FF8046002267
:1007C0008A4B03F075FC06460F468649886803F09D
:1007D00005FF32463B46CDE9000103F0C1FB04466C
:1007E00003F08CFB7F498860886803F023FF84B2A4
:1007F000204601F02FFC322001F05BFDAAF1010040
:1008000000F0FF0ABAF1000FAADCBDE8FC9F2DE959
:10081000FC5F4FF00A0A51E0734881684FF0804056
:1008200003F028FF834603F0D9FE804600226F4B79
:1008300003F03EFCCDE900016A49886803F0CEFE72
:100840000646DDE9002303F08BFB044603F056FB6C
:1008500064498860886803F0EDFE84B2204601F0A8
:10086000F9FB614841694FF07E5003F003FF834676
:1008700003F0B4FE00225D4BCDE9000103F018FC4B
:1008800006460F465749486903F0A8FE804632469F
:100890003B4603F065FB044603F030FB51494861D9
:1008A000486903F0C7FE84B2204601F074FC322090
:1008B00001F0FFFCAAF1010000F0FF0ABAF1000FFD
:1008C000AADC4FF00A0A2CE0474881684FF07E50BE
:1008D00003F0D0FE834603F081FE06460022434B20
:1008E00003F0E6FB04460D463E49886803F076FEB9
:1008F000804622462B4603F087FDCDE9000103F038
:10090000FDFA38498860886803F094FE84B2204676
:1009100001F0A0FB322001F0CCFCAAF1010000F0B4
:10092000FF0ABAF1000FCFDC4FF0140AA5E02E4801
:1009300001684FF07E5003F09DFE834603F04EFEAB
:1009400000222A4BCDE9000103F0B2FB8046894624
:100950002449086803F042FE064642464B4603F02F
:1009600053FD044603F0CAFA1E490860086803F004
:1009700061FE84B2204601F083FB1B4841684FF0C2
:100980007E5003F077FE834603F028FE06460022E1
:10099000164B03F08DFB804689461249486803F0E8
:1009A0001DFE42464B46CDE9000103F02DFD0446F5
:1009B00003F0A4FA0B494860486803F03BFE84B298
:1009C000204601F0BCFB0848C1684FF07E5003F0A0
:1009D00051FE834603F002FE80460022034B03F0E3
:1009E00067FB05E00000002030000020008056403A
:1009F00006460F46FE49C86803F0F0FD32463B4606
:100A0000CDE9000103F000FD044603F077FAF84950
:100A1000C860C86803F00EFE84B2204601F079FB7E
:100A2000F44801694FF07E5003F024FE834603F042
:100A3000D5FD0022F04BCDE9000103F039FB04465F
:100A40000D46EB49086903F0C9FD064622462B46D0
:100A500003F0DAFC804603F051FAE54908610869C1
:100A600003F0E8FD84B2204601F07FFB0F2001F087
:100A700020FCAAF1010000F0FF0ABAF1000F3FF7D5
:100A800056AF4FF00A0A51E0DA4881684FF07E50C5
:100A900003F0F0FD834603F0A1FD06460022D64B8D
:100AA00003F006FBCDE90001D149886803F096FD0B
:100AB0000446DDE9002303F0A7FC804603F01EFA9C
:100AC000CB498860886803F0B5FD84B2204601F008
:100AD000C1FAC84841694FF07E5003F0CBFD834610
:100AE00003F07CFD80460022C34B03F0E1FA06468A
:100AF0000F46BF49486903F071FD32463B46CDE9D8
:100B0000000103F081FC044603F0F8F9B84948619C
:100B1000486903F08FFD84B2204601F03CFB32208F
:100B200001F0C7FBAAF1010000F0FF0ABAF1000FC3
:100B3000AADCBDE8FC9F2DE9FC5F4FF00A0A51E0FA
:100B4000AC4881684FF07E5003F094FD834603F07B
:100B500045FD80460022A84B03F0AAFACDE900012A
:100B6000A349886803F03AFD0646DDE9002303F057
:100B70004BFC044603F0C2F99D498860886803F085
:100B800059FD84B2204601F065FA9A4841694FF058
:100B9000804003F06FFD834603F020FD0022964B5A
:100BA000CDE9000103F084FA06460F4690494869F2
:100BB00003F014FD804632463B4603F025FC044614
:100BC00003F09CF98A494861486903F033FD84B217
:100BD000204601F0E0FA322001F06BFBAAF101009F
:100BE00000F0FF0ABAF1000FAADC4FF00A0A2CE06D
:100BF000804841694FF07E5003F03CFD834603F08E
:100C0000EDFC064600227C4B03F052FA04460D46EA
:100C10007749486903F0E2FC804622462B4603F000
:100C20009FF9CDE9000103F069F97149486148690C
:100C300003F000FD84B2204601F0ADFA322001F04D
:100C400038FBAAF1010000F0FF0ABAF1000FCFDC77
:100C50004FF00A0A9EE0674801684FF07E5003F0AB
:100C600009FD834603F0BAFC0022634BCDE9000185
:100C700003F01EFA804689465D49086803F0AEFC21
:100C8000064642464B4603F06BF9044603F036F93C
:100C900057490860086803F0CDFC84B2204601F093
:100CA000EFF9544841684FF07E5003F0E3FC83466F
:100CB00003F094FC064600224F4B03F0F9F98046FE
:100CC00089464B49486803F089FC42464B46CDE9CA
:100CD000000103F045F9044603F010F94449486067
:100CE000486803F0A7FC84B2204601F028FA414886
:100CF000C1684FF07E5003F0BDFC834603F06EFCEC
:100D0000804600223C4B03F0D3F906460F46384993
:100D1000C86803F063FC32463B46CDE9000103F0AE
:100D20001FF9044603F0EAF83149C860C86803F0C7
:100D300081FC84B2204601F0ECF92E4801694FF0A5
:100D40007E5003F097FC834603F048FC00222A4BB8
:100D5000CDE9000103F0ACF904460D4624490869C9
:100D600003F03CFC064622462B4603F0F9F8804689
:100D700003F0C4F81E490861086903F05BFC84B203
:100D8000204601F0F2F90F2001F093FAAAF10100D8
:100D900000F0FF0ABAF1000F3FF75DAF4FF00A0A0B
:100DA00058E0144841694FF07E5003F063FC8346DD
:100DB00003F014FC064600220F4B03F079F9CDE94D
:100DC00000010B49486903F009FC0446DDE90023F2
:100DD00003F0C6F8804603F091F805494861486978
:100DE00003F028FC84B2204601F0D5F9014805E063
:100DF00000000020300000200080564081684FF045
:100E00007E5003F037FC834603F0E8FB8046002267
:100E1000FE4B03F04DF906460F46FD49886803F086
:100E2000DDFB32463B46CDE9000103F099F804466C
:100E300003F064F8F6498860886803F0FBFB84B22D
:100E4000204601F007F9322001F033FAAAF101003F
:100E500000F0FF0ABAF1000FA3DCBDE8FC9F2DE90A
:100E6000FC5F4FF03A0A52E0EA48C1684FF07E500A
:100E700003F000FC834603F0B1FB0022E34BCDE915
:100E8000000103F015F906460F46E149C86803F072
:100E9000A5FB804632463B4603F062F8044603F069
:100EA0002DF8DB49C860C86803F0C4FB84B2204653
:100EB00001F02FF9D74801684FF07E5003F0DAFBBC
:100EC000834603F08BFB0022D04BCDE9000103F0F9
:100ED000EFF806460F46CE49086803F07FFB8046D0
:100EE00032463B4603F090FA044603F007F8C8493F
:100EF0000860086803F09EFB84B2204601F0C0F849
:100F00000C2001F0D6F9AAF1010000F0FF0ABAF1B5
:100F1000000FA9DC4FF03A0A52E0BE4841684FF09A
:100F20007E5003F0A7FB834603F058FB0022B74B2B
:100F3000CDE9000103F0BCF806460F46B449486805
:100F400003F04CFB804632463B4603F009F804466A
:100F500002F0D4FFAE494860486803F06BFB84B2EE
:100F6000204601F0ECF8AB4801694FF07E5003F0E9
:100F700081FB834603F032FB0022A44BCDE9000144
:100F800003F096F880468946A149086903F026FBDC
:100F9000064642464B4603F037FA044602F0AEFFDF
:100FA0009B490861086903F045FB84B2204601F0C3
:100FB000DCF80C2001F07DF9AAF1010000F0FF0A35
:100FC000BAF1000FA9DCBDE8FC9F2DE9FC5F4FF0F2
:100FD0003A0A2CE08F4801684FF07E5003F04AFB3C
:100FE000834603F0FBFA0022884BCDE9000103F0B1
:100FF0005FF8804689468649086803F0EFFA06469E
:1010000042464B4602F0ACFF044602F077FF8049AF
:101010000860086803F00EFB84B2204601F030F847
:101020000C2001F046F9AAF1010000F0FF0ABAF124
:10103000000FCFDC322001F03CF94FF03A0A2CE0EF
:10104000744841684FF0804003F014FB834603F07E
:10105000C5FA00226D4BCDE9000103F029F80646E0
:101060000F466B49486803F0B9FA804632463B4662
:1010700003F0CAF9044602F041FF65494860486838
:1010800003F0D8FA84B2204601F059F80C2001F0A0
:1010900010F9AAF1010000F0FF0ABAF1000FCFDC4D
:1010A0004FF03A0A2CE05B4801684FF07E5003F0A5
:1010B000E1FA834603F092FA0022544BCDE9000195
:1010C00002F0F6FF04460D465149086803F086FA1F
:1010D000064622462B4602F043FF804602F00EFFF2
:1010E0004B490860086803F0A5FA84B2204600F076
:1010F000C7FF0C2001F0DDF8AAF1010000F0FF0AA3
:10110000BAF1000FCFDC322001F0D3F84FF03A0AE9
:101110002BE04048C1684FF07E5003F0ABFA8346A5
:1011200003F05CFA80460022384B02F0C1FFCDE9A3
:1011300000013749C86803F051FA0646DDE900238B
:1011400003F062F9044602F0D9FE3149C860C8686C
:1011500003F070FA84B2204600F0DBFF0C2001F0AF
:10116000A8F8AAF1010000F0FF0ABAF1000FD0DCE4
:10117000322001F09EF84FF03A0A2CE02548016930
:101180004FF0804003F076FA834603F027FA0022FE
:101190001E4BCDE9000102F08BFF04460D461C49B1
:1011A000086903F01BFA064622462B4602F0D8FED9
:1011B000804602F0A3FE16490861086903F03AFA76
:1011C00084B2204600F0D1FF0C2001F072F8AAF1A1
:1011D000010000F0FF0ABAF1000FCFDC4FF03A0A2D
:1011E00034E00C48C1684FF07E5003F043FA834668
:1011F00003F0F4F90022054BCDE9000102F058FF9D
:1012000006460F460249C86806E0000000805640C6
:10121000000000203000002003F0E0F98046324654
:101220003B4603F0F1F8044602F068FEF849C86056
:10123000C86803F0FFF984B2204600F06AFF0C2072
:1012400001F037F8AAF1010000F0FF0ABAF1000F2F
:10125000C7DCBDE8FC9F2DE9FC5F4FF03A0A52E085
:10126000EC4841684FF07E5003F004FA834603F0E7
:10127000B5F90022E84BCDE9000102F019FF06465E
:101280000F46E349486803F0A9F9804632463B46D9
:1012900002F066FE044602F031FEDD49486048680F
:1012A00003F0C8F984B2204600F049FFD94801692B
:1012B0004FF07E5003F0DEF9834603F08FF90022F1
:1012C000D54BCDE9000102F0F3FE06460F46D049AA
:1012D000086903F083F9804632463B4603F094F8F0
:1012E000044602F00BFECA490861086903F0A2F93E
:1012F00084B2204600F039FF0C2000F0DAFFAAF19A
:10130000010000F0FF0ABAF1000FA9DC322000F062
:10131000D0FF4FF03A0A52E0BE4801684FF07E50CD
:1013200003F0A8F9834603F059F90022BA4BCDE93E
:10133000000102F0BDFE06460F46B549086803F0FD
:101340004DF9804632463B4603F05EF8044602F013
:10135000D5FDAF490860086803F06CF984B22046F7
:1013600000F08EFEAB48C1684FF07E5003F082F96A
:10137000834603F033F90022A74BCDE9000102F0C8
:1013800097FE80468946A249C86803F027F90646B9
:1013900042464B4602F0E4FD044602F0AFFD9C4994
:1013A000C860C86803F046F984B2204600F0B1FE78
:1013B0000C2000F07EFFAAF1010000F0FF0ABAF154
:1013C000000FA9DCBDE8FC9F2DE9FC5F4FF03A0A55
:1013D00052E09048C1684FF07E5003F04BF98346CD
:1013E00003F0FCF800228C4BCDE9000102F060FE16
:1013F00006460F468649C86803F0F0F88046324634
:101400003B4603F001F8044602F078FD8049C860CD
:10141000C86803F00FF984B2204600F07AFE7D48D8
:1014200001684FF07E5003F025F9834603F0D6F8AB
:101430000022794BCDE9000102F03AFE06460F4644
:101440007349086803F0CAF8804632463B4602F00A
:1014500087FD044602F052FD6D490860086803F0FC
:10146000E9F884B2204600F00BFE0C2000F021FFCA
:10147000AAF1010000F0FF0ABAF1000FA9DC4FF059
:101480003A0A52E0634841684FF07E5003F0F2F8A8
:10149000834603F0A3F800225F4BCDE9000102F080
:1014A00007FE06460F465A49486803F097F88046FB
:1014B00032463B4602F0A8FF044602F01FFD5449A5
:1014C0004860486803F0B6F884B2204600F037FE62
:1014D000504801694FF07E5003F0CCF8834603F08A
:1014E0007DF800224C4BCDE9000102F0E1FD804681
:1014F00089464749086903F071F8064642464B465B
:1015000002F02EFD044602F0F9FC41490861086929
:1015100003F090F884B2204600F027FE0C2000F083
:10152000C8FEAAF1010000F0FF0ABAF1000FA9DC21
:10153000BDE8FC9F2DE9FC5F4FF03A0A2CE03548EE
:10154000C1684FF07E5003F095F8834603F046F8EB
:101550000022314BCDE9000102F0AAFD8046894608
:101560002B49C86803F03AF8064642464B4602F05B
:10157000F7FC044602F0C2FC2549C860C86803F0C5
:1015800059F884B2204600F0C4FD0C2000F091FE12
:10159000AAF1010000F0FF0ABAF1000FCFDC3220FF
:1015A00000F087FE4FF03A0A2CE01A4801694FF02C
:1015B000804003F05FF8834603F010F80022164BDA
:1015C000CDE9000102F074FD06460F461049086996
:1015D00003F004F8804632463B4602F015FF04460D
:1015E00002F08CFC0A490861086903F023F884B210
:1015F000204600F0BAFD0C2000F05BFEAAF10100CD
:1016000000F0FF0ABAF1000FCFDC4FF03A0A32E0E7
:10161000000000203000002000805640FE48016994
:101620004FF07E5003F026F8834602F0D7FF0022E9
:10163000FA4BCDE9000102F03BFD04460D46F849A6
:10164000C86802F0CBFF064622462B4602F088FC13
:10165000804602F053FCF249C860C86802F0EAFF15
:1016600084B2204600F055FD0C2000F022FEAAF1C5
:10167000010000F0FF0ABAF1000FCFDC322000F0C9
:1016800018FE4FF03A0A2BE0E34801684FF07E5015
:1016900002F0F0FF834602F0A1FF80460022DF4BFC
:1016A00002F006FDCDE90001DD49086802F096FF71
:1016B0000646DDE9002302F0A7FE044602F01EFC08
:1016C000D7490860086802F0B5FF84B2204600F0F0
:1016D000D7FC0C2000F0EDFDAAF1010000F0FF0A9C
:1016E000BAF1000FD0DC322000F0E3FD4FF03A0AEF
:1016F0002CE0C94841684FF0804002F0BBFF8346B0
:1017000002F06CFF0022C54BCDE9000102F0D0FCD5
:1017100004460D46C249486802F060FF064622466C
:101720002B4602F01DFC804602F0E8FBBC494860F5
:10173000486802F07FFF84B2204600F000FD0C20D4
:1017400000F0B7FDAAF1010000F0FF0ABAF1000FA6
:10175000CFDC4FF03A0A2CE0AF4801684FF07E50E2
:1017600002F088FF834602F039FF0022AB4BCDE93F
:10177000000102F09DFC06460F46A949086802F0E8
:101780002DFF804632463B4602F03EFE044602F004
:10179000B5FBA3490860086802F04CFF84B22046FC
:1017A00000F06EFC0C2000F084FDAAF1010000F0B6
:1017B000FF0ABAF1000FCFDCBDE8FC9F2DE9FC5F0A
:1017C0004FF03A0A52E0944841684FF07E5002F0E0
:1017D00051FF834602F002FF0022904BCDE9000149
:1017E00002F066FC06460F468D49486802F0F6FE98
:1017F000804632463B4602F007FE044602F07EFB7E
:1018000087494860486802F015FF84B2204600F01E
:1018100096FC814801694FF07E5002F02BFF834611
:1018200002F0DCFE00227D4BCDE9000102F040FC1D
:1018300006460F467A49086902F0D0FE80463246D5
:101840003B4602F08DFB044602F058FB74490861E8
:10185000086902F0EFFE84B2204600F086FC0C20FE
:1018600000F027FDAAF1010000F0FF0ABAF1000F15
:10187000A9DC322000F01DFD4FF03A0A52E0664824
:1018800001684FF07E5002F0F5FE834602F0A6FE9E
:101890000022624BCDE9000102F00AFC06460F4629
:1018A0005F49086802F09AFE804632463B4602F0E5
:1018B00057FB044602F022FB59490860086802F011
:1018C000B9FE84B2204600F0DBFB5348C1684FF0FC
:1018D0007E5002F0CFFE834602F080FE00224F4B86
:1018E000CDE9000102F0E4FB804689464C49C86816
:1018F00002F074FE064642464B4602F085FD044661
:1019000002F0FCFA4649C860C86802F093FE84B24F
:10191000204600F0FEFB0C2000F0CBFCAAF10100F9
:1019200000F0FF0ABAF1000FA9DCBDE8FC9F2DE929
:10193000FC5F4FF00A0A4AE0374881684FF07E505A
:1019400002F098FE834602F049FE80460022334BA7
:1019500002F0AEFBCDE900013149886802F03EFE9D
:101960000646DDE9002302F04FFD044602F0C6FA08
:101970002B498860886802F05DFE84B2204600F042
:1019800069FB254841694FF0804002F073FE8346B1
:1019900002F024FE0022214BCDE9000102F088FB79
:1019A00006460F461E49486902F018FE8046324638
:1019B0003B4602F029FD044602F0A0FA18494861AE
:1019C000322000F076FCAAF1010000F0FF0ABAF123
:1019D000000FB1DC4FF00A0A33E00F4841694FF0C5
:1019E0007E5002F047FE834602F0F8FD06460022D4
:1019F0000A4B02F05DFB04460D460949486902F0B6
:101A0000EDFD804622462B4602F0AAFACDE9000100
:101A100002F074FA024905E03000002000805640D0
:101A2000000000204861486902F004FE84B22046AC
:101A300000F0B1FB322000F03CFCAAF1010000F004
:101A4000FF0ABAF1000FC8DC4FF0140A9EE0E74825
:101A500001684FF07E5002F00DFE834602F0BEFD9D
:101A60000022E34BCDE9000102F022FB80468946CB
:101A7000E049086802F0B2FD064642464B4602F0D5
:101A80006FFA044602F03AFADA490860086802F090
:101A9000D1FD84B2204600F0F3FAD44841684FF0FB
:101AA0007E5002F0E7FD834602F098FD06460022D4
:101AB000CF4B02F0FDFA80468946CE49486802F0D5
:101AC0008DFD42464B46CDE9000102F049FA04463D
:101AD00002F014FAC7494860486802F0ABFD84B2CE
:101AE000204600F02CFBC148C1684FF07E5002F048
:101AF000C1FD834602F072FD80460022BC4B02F01D
:101B0000D7FA06460F46BB49C86802F067FD324661
:101B10003B46CDE9000102F023FA044602F0EEF95B
:101B2000B449C860C86802F085FD84B2204600F060
:101B3000F0FAAE4801694FF07E5002F09BFD8346FB
:101B400002F04CFD0022AA4BCDE9000102F0B0FAF0
:101B500004460D46A749086902F040FD06462246A4
:101B60002B4602F0FDF9804602F0C8F9A149086150
:101B7000086902F05FFD84B2204600F0F6FA0F20FB
:101B800000F097FBAAF1010000F0FF0ABAF1000F84
:101B90003FF75DAF4FF00A0A51E0944881684FF07B
:101BA0007E5002F067FD834602F018FD06460022D3
:101BB0008F4B02F07DFACDE900018E49886802F072
:101BC0000DFD0446DDE9002302F0CAF9804602F06B
:101BD00095F988498860886802F02CFD84B2204617
:101BE00000F038FA814841694FF07E5002F042FD22
:101BF000834602F0F3FC804600227D4B02F058FA47
:101C000006460F467B49486902F0E8FC32463B46EF
:101C1000CDE9000102F0A4F9044602F06FF975491C
:101C20004861486902F006FD84B2204600F0B3FA2C
:101C3000322000F03EFBAAF1010000F0FF0ABAF1E9
:101C4000000FAADCBDE8FC9F10B56B48006869492D
:101C50000860086802F0EEFC84B2204600F010FA3A
:101C60000A2000F026FB64484068624948604868E2
:101C700002F0E0FC84B2204600F061FA0A2000F095
:101C800018FB5D4880685B498860886802F0D2FC78
:101C900084B2204600F0DEF90A2000F00AFB564824
:101CA000C0685449C860C86802F0C4FC84B22046C9
:101CB00000F02FFA0A2000F0FCFA4F4800694D4965
:101CC0000861086902F0B6FC84B2204600F04DFAC3
:101CD0000A2000F0EEFA48484069464948614869E0
:101CE00002F0A8FC84B2204600F055FA0A2000F069
:101CF000E0FA10BD00F0A0FA00F07EF9472144F6AA
:101D0000206000F0D3F9472144F6206000F059FA32
:101D1000FFF79AFF4FF4FA6000F0CBFAFEF756FA9D
:101D2000642000F0C6FAFEF7DEFB642000F0C1FA82
:101D3000FEF76DFD642000F0BCFAFEF7FCFE6420A7
:101D400000F0B7FAFFF780FF00240FE0FFF787F8F5
:101D50000A2000F0AEFAFFF738F90A2000F0A9FADD
:101D6000FFF779FA0A2000F0A4FA641C032CEDD3E3
:101D7000FFF76AFF00240FE0FFF726FB0A2000F0C0
:101D800098FAFFF7D7FB0A2000F093FAFFF716FD49
:101D90000A2000F08EFA641C022CEDD3FFF754FFEA
:101DA000FEF714FA642000F084FAFEF79CFB64202E
:101DB00000F07FFAFEF72BFD642000F07AFA002491
:101DC0000AE0FEF790FB642000F073FAFEF71FFDB7
:101DD000642000F06EFA641C0A2CF2D3FEF7ABFE0E
:101DE000642000F066FA00BFFEE70000300000202B
:101DF000008056400000002018000020704700BFFF
:101E0000FEE700BFFEE700BFFEE700BFFEE770474A
:101E100070477047704700000CB50020019000909B
:101E20006C48006840F480306A49086000BF694827
:101E3000006800F4003000900198401C0190009868
:101E400018B90198B0F5A06FF1D16248006800F4AC
:101E5000003010B10120009001E0002000900098B7
:101E6000012843D15C48006840F010005A490860DE
:101E70000846006820F0030008600846006840F04B
:101E8000020008605348406852494860084640686C
:101E900048600846406840F48060486008464068F2
:101EA00020F47C1048600846406840F4E810486020
:101EB0000846006840F08070086000BF4548006830
:101EC00000F000700028F9D04248406820F003007C
:101ED000404948600846406840F00200486000BF42
:101EE0003C48406800F00C000828F9D10CBD10B542
:101EF000FFF792FF10BD10B53648006840F00100B2
:101F0000344908600846406834490840314948600F
:101F100008460068324908402E49086008460068B3
:101F200020F4802008600846406820F4FE004860E5
:101F30004FF41F008860FFF7DAFF4FF00060294977
:101F4000086010BD10B5002100200022214B5B6805
:101F500003F00C0121B1042906D0082928D107E09B
:101F6000214B224C236027E01F4B204C236023E0B1
:101F7000184B5B6803F47010164B5B6803F48032F7
:101F8000022303EB904022B9194B4343174C2360C3
:101F90000DE0104B5B6803F4003323B1144B434353
:101FA000124C236003E0104B4343104C236003E0CA
:101FB0000D4B0E4C236000BF00BF064B5B68C3F3A4
:101FC00003130C4CE15C094B1B68CB40074C2360AE
:101FD00010BD000000100240002002400000FFF889
:101FE000FFFFF6FE08ED00E000127A004800002036
:101FF00000093D004C00002008B501210C2000F034
:1020000065FD0F20ADF8000010208DF803000320BF
:102010008DF8020069460D4800F09CFA0F210B482C
:1020200000F045FB4FF47070ADF8000010208DF803
:10203000030003208DF802006946054800F08AFA83
:102040004FF47071024800F032FB08BD00080140F7
:10205000000C01401FB504466020ADF800000120CF
:10206000ADF80200ADF806400020ADF80800694662
:102070006D4801F0A1F908216B4801F073FD1FBD07
:102080001FB504466020ADF800000120ADF8020045
:10209000ADF806400020ADF808006946624801F03E
:1020A000D6F90821604801F066FD1FBD7FB50546E1
:1020B0000C460121042000F016FD0121082000F04B
:1020C00005FD4FF47070ADF80C0018208DF80F006E
:1020D00003208DF80E0003A9544800F03BFAADF838
:1020E0000450ADF800400020ADF80600ADF8020045
:1020F00069464D4801F094F801214B4801F0F8FB86
:102100000121494801F0E8FC0121474801F0E4FBC6
:102110007FBD1FB504466020ADF800000120ADF87A
:102120000200ADF806400020ADF8080069464048BE
:1021300001F0B3F808213E4801F0FEFC1FBD1FB5B9
:1021400004466020ADF800000120ADF80200ADF8B3
:1021500006400020ADF808006946354801F0DFF878
:102160000821334801F0F1FC1FBD1FB50446602073
:10217000ADF800000120ADF80200ADF806400020E7
:10218000ADF8080069462A4801F016F908212848E8
:1021900001F0E8FC1FBD1FB504466020ADF800004B
:1021A0000120ADF80200ADF806400020ADF80800AF
:1021B00069461F4801F04BF908211D4801F0DBFC7E
:1021C0001FBD7FB505460C460121082000F08BFCA1
:1021D0000121042000F07AFC0F20ADF80C0018203B
:1021E0008DF80F0003208DF80E0003A9114800F0B0
:1021F000B1F9ADF80450ADF800400020ADF806008C
:10220000ADF8020069460A4801F00AF801210848C1
:1022100001F06EFB0121064801F05EFC012104483B
:1022200001F05AFB7FBD000000080040000C014097
:10223000000C00400008014010B56FF0040000F0F1
:10224000FCFE2E4800682E49B0FBF1F02D490870C5
:102250000846007800EB4001C1EBC0104FF6FF715B
:1022600001EAC0002849088010BD0146254A1278BD
:102270004A434FF0E0235A6100229A611A461269DC
:1022800042F001021A6100BF4FF0E022106900F035
:1022900001021AB100F48032002AF5D04FF0E0229A
:1022A000126922F001024FF0E0231A6100229A61C4
:1022B00070470146144A12884A434FF0E0235A619E
:1022C00000229A611A46126942F001021A6100BFA7
:1022D0004FF0E022106900F001021AB100F48032E0
:1022E000002AF5D04FF0E022126922F001024FF0EF
:1022F000E0231A6100229A61704700004800002024
:1023000000127A005C0000205E000020014600BF41
:10231000704700BF4B4A128802F04002002AF9D0F1
:10232000C2B2484B1B1D1A80704710B586B00446D8
:10233000012144F2040000F0C9FB424800F02AFCED
:102340004FF40070ADF8140003208DF8160018202B
:102350008DF8170005A93C4800F0FCF84FF48060A8
:10236000ADF8140004208DF8170005A9364800F0D8
:10237000F1F825208DF8000003208DF801008DF87C
:10238000020001208DF80300684600F00CFE019465
:102390000020ADF80800ADF80A00ADF80C00ADF86B
:1023A00010000C20ADF80E0001A9264800F035FC05
:1023B000012240F22551234800F0C7FC01212148A9
:1023C00000F0B7FC06B010BD10B540F225511D4815
:1023D00000F0A0FD10B31B4800F01CFDC4B21B4868
:1023E000008800F40040C8B91848008800F4804014
:1023F00060B10A2C03D000201449088020E0134863
:10240000008840F400401149088019E00D2C06D1E5
:102410000E48008840F480400C49088010E00B48CA
:102420000088C0F30D000A490C5408480088401C7D
:102430000649088008460088C72801DD002008807A
:1024400010BD000000380140000801406400002079
:102450007C0000200948804709480047FEE7FEE766
:10246000FEE7FEE7FEE7FEE7FEE7FEE7FEE7FEE744
:1024700004480549054A064B70470000F71E00084E
:1024800031010008A8010020A8070020A8030020AF
:10249000A803002010B50446CC48844208D101218D
:1024A000042000F02DFB0021042000F029FB46E071
:1024B000C748844208D10121082000F021FB0021F7
:1024C000082000F01DFB3AE0C248844208D10121F7
:1024D000102000F015FB0021102000F011FB2EE071
:1024E000BD48844208D10121202000F009FB0021D1
:1024F000202000F005FB22E0B848844208D10121E9
:10250000402000F0FDFA0021402000F0F9FA16E02A
:10251000B348844208D10121802000F0F1FA002163
:10252000802000F0EDFA0AE0AE48844207D1012194
:10253000801500F0E5FA0021A01500F0E1FA10BDC9
:1025400010B50121084600F0DBFA0021012000F05F
:10255000D7FA10BD2DE9F0410246002500260020E3
:1025600000230024002791F803C00CF00F0591F818
:1025700003C00CF0100CBCF1000F03D091F802C0A6
:102580004CEA050591F800C0BCF1000F31D0146889
:1025900000202BE04FF0010C0CFA00F3B1F800C062
:1025A0000CEA03069E4220D183004FF00F0C0CFA78
:1025B00003F7BC4305FA03FC4CEA040491F803C09A
:1025C000BCF1280F06D14FF0010C0CFA00FCC2F848
:1025D00014C00AE091F803C0BCF1480F05D14FF0D8
:1025E000010C0CFA00FCC2F810C0401C0828D1D322
:1025F0001460B1F800C0BCF1FF0F34DD5468002056
:102600002EE000F1080C4FF0010808FA0CF3B1F8C5
:1026100000C00CEA03069E4221D183004FF00F0C4C
:102620000CFA03F7BC4305FA03FC4CEA040491F8E6
:1026300003C0BCF1280F05D100F1080C08FA0CF812
:10264000C2F8148091F803C0BCF1480F07D100F123
:10265000080C4FF0010808FA0CF8C2F81080401C72
:102660000828CED35460BDE8F0814FF6FF71018099
:10267000022181700421C1707047024600209368D6
:102680000B400BB1012000E0002070470146886834
:1026900080B2704702460020D3680B400BB1012086
:1026A00000E0002070470146C86880B270470161B1
:1026B0007047416170470AB1016100E041617047B4
:1026C000C16070474FF480320A4382618161826148
:1026D00082698269704702460020434B18684FF6B2
:1026E0008073184040EA021008433F4B186070475F
:1026F0003E49C8617047F0B50A4600230024002116
:10270000002500F00046B6F1004F02D1364EF169C7
:1027100001E0354E7168C0F3034583B200F4401602
:10272000B6F5401F08D121F070612F4E766826F073
:1027300070662D4F7E6012E000F48016B6F5801FA3
:1027400006D1032606FA05F4A14341F0706106E0C4
:10275000460D360103FA06F6B14341F0706122B12D
:10276000460D360103FA06F6314300F00046B6F195
:10277000004F02D11C4EF16101E01B4E7160F0BDB3
:1027800030B500228B071C0F0F2303FA04F2164BFF
:1027900008338C1053F824309343134C08348D10B5
:1027A00044F8253023468C1053F824308C07240F2E
:1027B00000FA04F423430C4C08348D1044F82530FF
:1027C00030BD0A49DC310860704700000008014054
:1027D000000C0140001001400014014000180140AD
:1027E000001C014000200140000001400000204288
:1027F000DF48006840F00100DD4908600846406895
:10280000DC490840DA49486008460068DA4908406F
:10281000D74908600846006820F480200860084610
:10282000406820F4FE0048604FF41F008860704745
:10283000CF49096821F48031CD4A116011460968F9
:1028400021F480211160B0F5803F03D0B0F5802FD6
:102850000ED106E0C649096841F48031C44A1160CE
:1028600007E0C349096841F4A021C14A116000E0B2
:1028700000BF00BF704710B50146002200230020B2
:102880004A11012A02D1BA4C236806E0022A02D179
:10289000B74C236A01E0B64C636A01F01F020124C1
:1028A00094401C400CB1012000E0002010BD38B560
:1028B000002000900024002500BF3120FFF7DBFF3F
:1028C00005460098401C00900098B0F5A06F01D01C
:1028D000002DF2D03120FFF7CEFF08B1012400E037
:1028E0000024204638BD01460020A14A106820F08F
:1028F000F80040EAC10010607047A04908607047C6
:10290000024600209A4B586820F47C1042EA0103EA
:102910001843974B586070479849086670470146BE
:102920000020934A506820F003000843506070472D
:102930008F48406800F00C007047014600208C4A28
:10294000506820F0F00008435060704701460020B6
:10295000874A506820F4E0600843506070470146A1
:102960000020834A506820F4605040EAC100506063
:10297000704729B17E4A527A02437D4B5A7204E075
:102980007B4A527A82437A4B5A7270477B49D831DC
:102990000860704701460020754A506820F44040A6
:1029A0000843506070470021714A20321170704A0C
:1029B00082F82010012802D004280AD104E0012165
:1029C0006B4A2032117005E00521694A20321170EE
:1029D00000E000BF00BF7047694908607047644964
:1029E000096A0143624A11627047654944390860C7
:1029F000704730B500210022002400235C4D6D6833
:102A000005F00C0121B1042905D0082923D105E0E6
:102A10005C4D056022E05B4D05601FE0544D6D6824
:102A200005F47012524D6D6805F48034022505EBF3
:102A300092421CB9544D554305600BE04C4D6D68F6
:102A400005F400351DB1504D5543056002E04D4D74
:102A50005543056002E04B4D056000BF00BF444D8B
:102A60006D6805F0F0010909484D6B5C0568DD40B3
:102A700045603F4D6D6805F4E061090A434D6B5CAC
:102A80004568DD4085603A4D6D6805F46051C90ABE
:102A90003E4D6B5C4568DD40C560354D6D6805F4A5
:102AA0004041890B3A4D6B5CC568B5FBF3F5056198
:102AB00030BD29B12E4A526902432D4B5A6104E0C0
:102AC0002B4A526982432A4B5A61704729B1284ADE
:102AD00092690243264B9A6104E0254A9269824337
:102AE000234B9A61704729B1214AD2690243204B96
:102AF000DA6104E01E4AD26982431D4BDA617047F5
:102B000029B11B4AD2680243194BDA6004E0184A23
:102B1000D2688243164BDA60704729B1144A1269B1
:102B20000243134B1A6104E0114A12698243104BAD
:102B30001A61704712494039086070470F49C864EC
:102B400070470B49C87170470948406A40F080706F
:102B500007494862704701460020054A92680A40CA
:102B60000AB1012000E000207047014988727047D7
:102B7000001002400000FFF8FFFFF6FE0000424296
:102B80008004424200127A0000093D0066000020E5
:102B90007600002010B50446FB48844209D101218B
:102BA0008803FFF7ADFF00214FF48040FFF7A8FF37
:102BB00032E0F648844209D101214804FFF7ADFF15
:102BC00000214FF40030FFF7A8FF25E0F0488442D1
:102BD00009D101218804FFF7A0FF00214FF48020D4
:102BE000FFF79BFF18E0EB48844209D10121C8049C
:102BF000FFF793FF00214FF40020FFF78EFF0BE05B
:102C0000E548844208D101210805FFF786FF00212D
:102C10004FF48010FFF781FF10BD2DE9F04786B01B
:102C200005460E460024A24600BFA1460027B089F3
:102C300000B100BF2F462C8A4CF6FF700440F0888C
:102C400004432C82AC894EF6F3100440B0883189DD
:102C50000843718908430443AC81AC8A4FF6FF40B6
:102C60000440B0890443AC8201A8FFF7C2FEC64805
:102C7000874202D1DDF810A001E0DDF80CA0A889A0
:102C800000F4004040B10AEBCA0000EB0A103168C2
:102C90004900B0FBF1F807E00AEBCA0000EB0A10AC
:102CA00031688900B0FBF1F86420B8FBF0F0040152
:102CB0002009642101FB1089A88900F4004040B17B
:102CC000322000EBC900B0FBF1F000F00700044334
:102CD00008E0322000EB09106421B0FBF1F000F0B5
:102CE0000F0004432C8106B0BDE8F0874FF4165165
:102CF000016000218180C18001810C21418100217E
:102D00008181704710B502460020108A4FF2FF0300
:102D100018400B884C8823438C882343CC8823435A
:102D20001843108210BD0021018041808180C18044
:102D3000704721B1828942F40052828104E0828985
:102D40004DF6FF731A4082817047F0B503460024A8
:102D500000260025002040F66A17B94200D100BFC6
:102D60001846C1F3421401F01F06012707FA06F5C1
:102D7000012C01D10C3004E0022C01D1103000E014
:102D800014301AB107682F43076002E00768AF43A9
:102D90000760F0BD1AB1838A0B43838202E0838A05
:102DA0008B4383827047028A4FF6F0731A40028287
:102DB000028A0A430282704782894FF2FF731A40E7
:102DC000828182890A438281704721B1828942F0DF
:102DD0000202828104E082894FF6FD731A408281EB
:102DE0007047028A4FF6DF731A400282028A0A4352
:102DF0000282704721B1028A42F48042028204E0DA
:102E0000028A4BF6FF731A4002827047C1F3080230
:102E10008280704701468888C0F308007047818926
:102E200041F0010181817047028BD2B20283028B93
:102E300042EA012202837047028B02F47F4202833E
:102E4000028B0A430283704721B1828A42F020023A
:102E5000828204E0828A4FF6DF731A4082827047D2
:102E600021B1828A42F01002828204E0828A4FF607
:102E7000EF731A408282704721B1828A42F00802C1
:102E8000828204E0828A4FF6F7731A40828270478A
:102E900021B1828942F40042828103E08289C2F337
:102EA0000E028281704721B1828A42F400628282DE
:102EB00004E0828A4FF2FF731A4082827047828A4E
:102EC0004FF6FB731A408282828A0A4382827047DD
:102ED00021B1828A42F00202828204E0828A4FF6A5
:102EE000FD731A408282704702460020B1F5007FD0
:102EF00000D100BF13880B400BB1012000E000207F
:102F0000704701F40072B2F5007F00D100BFCA43E0
:102F10000280704770B5024600240023002500207F
:102F200040F66A16B14200D100BFC1F3421501F06C
:102F30001F03012606FA03F3012D02D196893340BF
:102F400006E0022D02D1168A334001E0968A334012
:102F50000C12012606FA04F41688344013B10CB1A1
:102F6000012000E0002070BD10B50022002340F6D3
:102F70006A14A14200D100BF0A1201249440A3B2F6
:102F8000DC43048010BD00000038014000440040D4
:102F900000480040004C00400050004031490143CF
:102FA000314A1160704770B5002100230F22C478A8
:102FB00004B32D4C246804F4E064C4F5E064210AF1
:102FC000C1F10403CA40447804FA03F18478144040
:102FD00021430901254C0678A155047804F01F050A
:102FE0000124AC4005786D11AD0005F1E025C5F870
:102FF000004109E0047804F01F050124AC401C4D99
:103000000678761145F8264070BD1A4A0A400243F8
:10301000154B1B1F1A60704739B1134A121D1268F5
:103020000243114B1B1D1A6006E00F4A121D126865
:1030300082430D4B1B1D1A607047042808D14FF0C6
:10304000E021096941F004014FF0E022116107E03D
:103050004FF0E021096921F004014FF0E0221161F5
:10306000704700000000FA050CED00E000E400E00D
:1030700080E100E080FFFF1F10B50446FE48844257
:1030800008D10121C014FFF73BFD0021E014FFF738
:1030900037FDC4E0B4F1804F08D101210846FFF7A5
:1030A0003CFD00210120FFF738FDB8E0F3488442E1
:1030B00008D101210220FFF730FD00210220FFF797
:1030C0002CFDACE0EE48844208D101210420FFF73A
:1030D00024FD00210420FFF720FDA0E0E948844200
:1030E00008D101210820FFF718FD00210820FFF773
:1030F00014FD94E0E448844208D101211020FFF738
:103100000CFD00211020FFF708FD88E0DF48844215
:1031100008D101212020FFF700FD00212020FFF72A
:10312000FCFC7CE0DA48844208D101214014FFF71E
:10313000E7FC00216014FFF7E3FC70E0D54884420F
:1031400009D10121C804FFF7DBFC00214FF4002066
:10315000FFF7D6FC63E0D048844209D1012108057D
:10316000FFF7CEFC00214FF48010FFF7C9FC56E0BA
:10317000CA48844209D101214805FFF7C1FC00215A
:103180004FF40010FFF7BCFC49E0C548844208D169
:1031900001214020FFF7C1FC00214020FFF7BDFCCA
:1031A0003DE0C048844208D101218020FFF7B5FCF2
:1031B00000218020FFF7B1FC31E0BB48844208D1F8
:1031C00001218015FFF7A9FC0021A015FFF7A5FC40
:1031D00025E0B648844209D101210804FFF790FC9C
:1031E00000214FF48030FFF78BFC18E0B048844298
:1031F00009D101214804FFF783FC00214FF400307E
:10320000FFF77EFC0BE0AB48844208D10121880423
:10321000FFF776FC00214FF48020FFF771FC10BD12
:1032200000220288944B98420ED0994B98420BD0C2
:10323000B0F1804F08D0914B984205D0904B984206
:1032400002D0904B984204D14FF68F731A404B88AE
:103250001A438D4B984207D08C4B984204D04FF6BE
:10326000FF431A40CB881A4302808B8883850B88E2
:103270000385814B98420BD0854B984208D08B4BED
:10328000984205D08A4B984202D08A4B984201D18D
:103290000B7A038601238382704770B500240022D5
:1032A0000023058C4FF6FE7635400584028C83881A
:1032B000048B4FF68F752C40B51E2C400D882C4387
:1032C000751E2A400D892A434D882A436A4DA8421B
:1032D0000BD06F4DA84208D0744DA84205D0744D54
:1032E000A84202D0734DA84213D14FF6F7752A4079
:1032F0004D892A434FF6FB752A408D882A434FF6A5
:10330000FF652B404FF6FF552B408D892B43CD8910
:103310002B4383800483CD888586028470BD70B57D
:10332000002400220023058C4FF6EF7635400584FB
:10333000028C8388048B48F6FF752C404FF6FF45BE
:103340002C400D884FF6FF7606EA05252C434FF6F4
:10335000DF752A400D8906EA05152A434D8806EADD
:1033600005152A43444DA84202D0494DA8421DD11B
:103370004FF67F752A404D894FF6FF7606EA051510
:103380002A434FF6BF752A408D8806EA05152A4361
:103390004FF6FF352B404FF2FF752B408D8906EA23
:1033A00085052B43CD8906EA85052B43838004835D
:1033B000CD880587028470BD70B5002400220023EB
:1033C000058C4FF6FF6635400584028C8388848B1C
:1033D0004FF68F752C404FF6FC752C400D882C4312
:1033E0004FF6FF552A400D894FF6FF7606EA052570
:1033F0002A434D8806EA05252A431F4DA84202D0DC
:10340000234DA8421DD14FF2FF752A404D894FF63A
:10341000FF7606EA05252A434FF6FF352A408D88B8
:1034200006EA05252A434EF6FF752B404DF6FF753B
:103430002B408D8906EA05152B43CD8906EA051533
:103440002B4383808483CD888587028470BD70B5CB
:10345000002200230024058C4EF6FF7635400584BB
:10346000038C8488828B48F6FF752A404FF6FF450F
:103470002A400D8820E00000002C0140000400409C
:1034800000080040000C0040001000400014004004
:1034900000340140004C0140005001400054014004
:1034A00000180040001C0040002000400040014087
:1034B00000440140004801404FF6FF7606EA05252A
:1034C0002A434DF6FF752B400D8906EA05352B433F
:1034D0004D8806EA05352B43FA4DA84202D0FA4D35
:1034E000A84208D14BF6FF752C408D894FF6FF7628
:1034F00006EA85152C4384808283CD88A0F840504D
:10350000038470BD828B4FF2FF331A408283828B1B
:103510004FF6FF7303EA01231A4382837047F0B525
:103520000C461546002200210026078C4EF6FF7C33
:1035300007EA0C070784828B018C4FF6FF7707EAB6
:10354000043640F6FF473A404FF6FF7707EA052773
:103550003A434FF6FF7707EA03373A43D94FB84269
:103560000ED0D94FB8420BD0B0F1804F08D0D74F12
:10357000B84205D0D64FB84202D0D64FB84206D195
:103580004DF6FF77394046F48057394305E047F65A
:10359000FF57394044F48057394382830184F0BD9A
:1035A000828B4FF6F3731A408283828B0A438283A5
:1035B0007047F0B50C461546002200210026078C06
:1035C0004FF6FF6C07EA0C070784828B018C4FF6DD
:1035D000FF7707EA04264FF60C773A404FF6FF775D
:1035E00007EA03172F433A43B64FB8420ED0B64FFF
:1035F000B8420BD0B0F1804F08D0B44FB84205D0DC
:10360000B34FB84202D0B34FB84206D14FF6FF577E
:10361000394046F48077394305E04FF2FF5739408F
:1036200044F48077394382830184F0BD028B4FF2EA
:10363000FF331A400283028B4FF6FF7303EA012324
:103640001A4302837047F0B50C461546002200214C
:103650000026078C4FF6EF7C07EA0C070784028BE5
:10366000018C4FF6FF7707EA041640F6FF473A4011
:103670004FF6FF7707EA03373A434FF6FF7707EA3B
:1036800005273A438F4FB8420ED08F4FB8420BD028
:10369000B0F1804F08D08D4FB84205D08C4FB84262
:1036A00002D08C4FB84206D14FF6DF77394046F052
:1036B0001007394305E04FF65F77394044F01007B3
:1036C000394302830184F0BD028B4FF6F3731A4035
:1036D0000283028B0A4302837047F0B50C461546FD
:1036E00000220021068C4FF6FE773E400684028BB6
:1036F000018C4FF60C7632407E1C06EA03162E43F0
:103700003243704EB0420ED06F4EB0420BD0B0F18B
:10371000804F08D06D4EB04205D06D4EB04202D001
:103720006C4EB04206D14FF6FD76314044F00106B2
:10373000314305E04FF6F576314044F00106314360
:1037400002830184F0BD70B505460C465D48854294
:103750000ED05D4885420BD0B5F1804F08D05B4854
:10376000854205D05A48854202D05A48854200D148
:1037700000E000BF208850B92389A28861882846CC
:10378000FFF7ABFFE1882846FFF79EFF25E0208882
:1037900004280AD12389A28861882846FFF753FFAD
:1037A000E1882846FFF742FF17E0208808280AD161
:1037B0002389A28861882846FFF7FBFEE188284616
:1037C000FFF7EEFE09E02389A28861882846FFF70B
:1037D000A6FEE1882846FFF795FE70BD2DE9F04171
:1037E00005460C4600260127608808B9022600E03D
:1037F0000026A088012801D1022700E001272088A7
:10380000A0B92389A28861882846FFF766FFE1886E
:103810002846FFF759FF23893A4631462846FFF7E5
:1038200012FFE1882846FFF701FF13E02389A288F1
:1038300061882846FFF707FFE1882846FFF7F6FE74
:1038400023893A4631462846FFF747FFE188284654
:10385000FFF73AFFBDE8F0810A884B881A438B884E
:103860001A43CB881A430B891A434B891A438B8915
:103870001A43A0F8442070474FF6FF718180002161
:103880000180C18041800172704700210180418028
:103890008180C180018141818181C1817047002186
:1038A00001804180012181800021C1800181704718
:1038B0000021018041808180C1800181418181811D
:1038C00070470000002C014000340140000400401B
:1038D00000080040000C004021B1028842F00102C3
:1038E000028004E002884FF6FE731A40028070479F
:1038F00031B1B0F8442042F40042A0F8442005E081
:10390000B0F84420C2F30E02A0F8442070471AB168
:1039100083890B43838102E083898B4383817047D2
:103920008182704741EA0203A0F8483070471AB11B
:1039300083890B43838102E083898B4383817047B2
:1039400001894FF6F8721140018170470A46002143
:1039500001894FF68F73194011430181704730B5CB
:1039600004460D4629462046FFF7F0FF208940F027
:103970000700208130BD2DE9F04104460D46164672
:103980001F46602D06D13B46012231462046FFF7F7
:103990005AFE05E03B46012231462046FFF79DFED8
:1039A00029462046FFF7D2FF208940F007002081FA
:1039B000BDE8F08130B50C4600210189C9B24FF64F
:1039C000FF7505EA0325154325432943018130BDD1
:1039D0002DE9F04105460E46174698460024434619
:1039E0003A4631462846FFF7E5FF2C894FF6F87036
:1039F000044044F007044FF68F70044044F0700414
:103A00002C81BDE8F081F0B504460D4616461F46F0
:103A10003B46324629462046FFF7CCFF208940F43A
:103A200080402081F0BD0185828270470A460021D6
:103A300001884FF68F731940114301807047F0B52C
:103A40000C4615461E460021002200230189028BE8
:103A5000038C4FF6F877394021434FF6FC473A4044
:103A600040F201173A434FF6DD773B404FF6FF77C0
:103A700007EA06172F433B43018102830384F0BD0D
:103A80000A460021018B4FF68F73194011430183C1
:103A900070470A460021018B48F6FF7319404FF624
:103AA000FF7303EA02231943018370470A4600218A
:103AB000818B4FF68F7319401143818370470A46FB
:103AC0000021818B48F6FF7319404FF6FF7303EA1C
:103AD000022319438183704721B1028842F080029A
:103AE000028004E002884FF67F731A40028070471C
:103AF00021B1828842F00402828004E082884FF67D
:103B0000FB731A408280704721B1828842F008021C
:103B1000828004E082884FF6F7731A4082807047F3
:103B200021B1828842F00102828004E082884FF64F
:103B3000FE731A40828070470A460021018B4FF6BF
:103B4000F77319401143018370470A460021018B26
:103B50004FF2FF7319404FF6FF7303EA0223194334
:103B6000018370470A460021818B4FF6F773194095
:103B70001143818370470A460021818B4FF2FF7306
:103B800019404FF6FF7303EA0223194381837047FC
:103B90000A460021018B4FF6FB7319401143018344
:103BA00070470A460021018B4FF6FF3319404FF64C
:103BB000FF7303EA02231943018370470A46002179
:103BC000818B4FF6FB7319401143818370470A467E
:103BD0000021818B4FF6FF3319404FF6FF7303EA44
:103BE00002231943818370470A460021018B4FF657
:103BF0007F7319401143018370470A460021018BEE
:103C0000C1F30E014FF6FF7303EA02231943018348
:103C100070470A460021818B4FF67F73194011438C
:103C2000818370470A460021818BC1F30E014FF654
:103C3000FF7303EA02231943818370470A46002178
:103C4000018C4FF6FD7319401143018470470A46F9
:103C50000021018C4FF6F77319401143018470471E
:103C60000A460021018C4FF6DF7319404FF6FF73AF
:103C700003EA02131943018470470A460021018CAC
:103C80004FF67F7319404FF6FF7303EA021319438F
:103C9000018470470A460021018C4FF6FF531940FA
:103CA0004FF6FF7303EA02231943018470470A4663
:103CB0000021018C4FF2FF7319404FF6FF7303EAA6
:103CC00002231943018470470A460021018C4DF6F6
:103CD000FF7319404FF6FF7303EA0233194301845F
:103CE000704730B5002301248C40A3B2048C9C4360
:103CF0000484048C02FA01F5ADB22C43048430BD77
:103D000030B5002304248C40A3B2048C9C4304846B
:103D1000048C02FA01F5ADB22C43048430BD70B5B9
:103D20000346002000241846183001258D40ACB20F
:103D30001D8CA5431D8409B1082909D100EB610040
:103D4000056825F0700505600568154305600EE0FF
:103D50000D1FC5F34E052844056825F4E0450560B0
:103D600005684FF6FF7606EA02263543056070BD0A
:103D700021B1028842F00202028004E002884FF67C
:103D8000FD731A400280704721B1028842F004029C
:103D9000028004E002884FF6FB731A4002807047ED
:103DA00021B1828842F08002828004E082884FF64E
:103DB0007F731A408280704702884FF6F7731A406B
:103DC000028002880A430280704782884FF68F7310
:103DD0001A40828082880A438280704702894FF6A7
:103DE000F8731A40028102890A43028170470289EE
:103DF0004FF67F731A40028102890A43028170479D
:103E0000818470478185704781867047018770473C
:103E100081877047A0F84010704702884FF6FF4333
:103E20001A40028002880A43028070470146888E49
:103E300070470146088F70470146888F70470146DA
:103E4000B1F8400070470146888C70470146088DE4
:103E5000704702460020138A0B400BB1012000E09E
:103E600000207047CA430282704730B502460020E6
:103E700000230024158A05EA0103958905EA010457
:103E800013B10CB1012000E0002030BDCA43028212
:103E9000704770477047704770477047754600F02D
:103EA00029F8AE4605006946534620F007008546CE
:103EB00018B020B5FEF7DCFABDE820404FF0000650
:103EC0004FF000074FF000084FF0000B21F0070102
:103ED000AC46ACE8C009ACE8C009ACE8C009ACE845
:103EE000C0098D4670470446AFF300802046FCF7BA
:103EF00066F90000004870474401002021F00042AC
:103F0000A2F16052B2F5801F01F0004328BFD2F148
:103F10007F6C0BD95FEA001C43EAC20242EB50708F
:103F200018BF704728BF20F001007047B2F5801F0E
:103F3000BCBF184670474FEA410C1CF5001F02D267
:103F4000084600F05EBC70B500F00AFA0000008977
:103F5000FFF7F6BF4FF00040A0F58000704700006B
:103F600010B591EA030F48BF83F0004300F154827B
:103F7000841A71EB030C05D2121943EB0C03001BDE
:103F800061EB0C01DFF824E14FEA1154A4EB135C60
:103F90001EEA430F18BF9EEA445F73D023EA0E0364
:103FA000DCF1200E21EA045143F4801332D322FACB
:103FB0000CFE10EB0E0023FA0CFE41EB0E01CCF1CF
:103FC000200E03FA0EFE10EB0E0051F10001B1F5C8
:103FD000801FCCF1200E32D201EB045112FA0EF206
:103FE000BDE8104058BF7047401C38BF5FEA42022E
:103FF00018BF7047002814BF20F0010041F10001F4
:104000004FEA410313F5001F38BF7047A1F1C041CB
:1040100000F0F4B9012A43EB0302ACF1200CDCF10F
:104020001F0E32BF4FF0000E23FA0CF310EB03000B
:1040300041EB0451B4EB115FD0D0A1EB045101F579
:10404000801149085FEA300001EB04510ED350F1B2
:10405000000038BF12FA0EFE08D1BDE81040C9E7D3
:10406000401C38BF5FEA4202CAD1C3E7BDE8104036
:104070004FEA410313F5001F38BF7047A1F1C0415B
:1040800000F0BCB99EEA445F08D011EA5E0FBDE8BB
:10409000104004BF01F0004100207047BDE810400F
:1040A00070B500F05DF900BF64FBBE3E0000E0FFAC
:1040B0002DE9C04130B4DFF8A0C23CEA111418BFAA
:1040C0003CEA131400F0EC8081EA03051CEA1114A9
:1040D00044EAD57418BF1CEA131500F0C780A4EB9E
:1040E00005044FF0004545EAC12145EAC32341EAF2
:1040F000505143EA525304F17F74994204F500345D
:104100004FEAC0204FEAC22208BF904200F09C80D4
:104110004FEA13650FF24016765D4FEA134506FB32
:1041200005F7C7F1807706FB07F74FEAD737A7FBFC
:1041300003687642C8F58038A7FB06CE38BFA8F1E1
:10414000010807FB08E64FF0000EA6FB028CE6FB19
:1041500003CEDCF1000CCEF1004E38BFAEF1010E03
:10416000A6FB0C584FF000074FF00005E6FB0E874A
:10417000A1FB08C6A0FB07CE16EB0E0645F1000515
:10418000E1FB076515F1E04E7EBFA4F580345FEAE0
:1041900046066D4116F1800745F100054FEA1727E5
:1041A0004FEA066647EA0567A6F1DE46B6F1805F8C
:1041B0004FEA15251FD9384624F0010C05EBC471D0
:1041C000BCF1FE6F01EB0C1102D8F0BCBDE8008120
:1041D00024425CBF01F5801E9EEAC47F02D4F0BC7D
:1041E000BDE80081244238D4F0BCA1F1C041BDE853
:1041F000004100F003B94FEAD22242EA43524FEAAB
:10420000D323A7FB02864FEAD02040EA415007FBA8
:1042100003661EEA0E0F4FEAD12105FB026658BF66
:10422000A6EB0056B6EB00564FEA520E4EEAC37E9E
:1042300018EB0E0E56EB530EBDD518EB02085E417F
:104240007F1C55F10005B6E74FF480154FF00007CD
:104250004FF000064FF00008ADE7F0BC4FF0000053
:1042600001F1C04101F00041BDE8008111EA0C1FDD
:104270000CEA131500D00CE013EA0C1F00F02580A7
:104280004FF00000F0BC81EA030101F00041BDE8FD
:104290000081F0BC81EA0301BDE8004100F0AEB846
:1042A000F0BCBDE8004170B500F05AF8097EFC3E54
:1042B00000F007B881EA03014FF0000001F000416F
:1042C000704781EA030100F099B8F0BC4FF000009C
:1042D0002249BDE800417047FFFDFBF9F7F5F4F214
:1042E000F0EEEDEBE9E8E6E4E3E1E0DEDDDBDAD891
:1042F000D7D5D4D3D1D0CFCDCCCBCAC8C7C6C5C4EF
:10430000C2C1C0BFBEBDBCBBBAB9B8B7B6B5B4B305
:10431000B2B1B0AFAEADACABAAA9A8A8A7A6A5A4F0
:10432000A3A3A2A1A09F9F9E9D9C9C9B9A999998B4
:104330009797969595949393929191908F8F8E8E57
:104340008D8C8C8B8B8A89898888878786858584E4
:1043500084838382828181800000FF070000F87FD0
:104360000EF1020E2EF0030E5EF8046B364205D4F9
:10437000012A43EB030515F5001F12D8012841EB74
:10438000010C1CF5001F0CD80ED14FEAD17C15F59D
:10439000001F0CEB4C0C0CF1020C08BF4CEBD37C57
:1043A00004E04FF0080C01E04FEAD37C0CEB4C0525
:1043B00026FA05F606F00706B6F1040C06D20EEB57
:1043C000860CBDE870404CF0010C6047DFE80CF053
:1043D000090B02024FF000414FF00000A1F500214F
:1043E00070BD19461046012851EB010418BFD4F5E1
:1043F000001484BF002001F0004170BD0808A0F542
:1044000000114FEA3101704710B591EA030F48BF20
:1044100083F000433FF5ACAD841A71EB030C07D277
:1044200012198CF0004C43EB0C03001B61EB0C01E8
:10443000DFF8A4E14FEA1154A4EB135C1EEA430F2A
:1044400018BF9EEA445F00F0B08023EA6E03524238
:1044500021EA0451C3EB6E0338BF5B1EDCF1200E72
:1044600025D322FA0CFE10EB0E0043FA0CFE41EBB2
:104470000E01CCF1200E03FA0EFE10EB0E0051F1EE
:104480000001CCF1200E29D412FA0EF201EB0451F6
:10449000BDE8104058BF7047401C1CBFB2F1004F30
:1044A000704700280CBF491C20F00100704712EB38
:1044B000020E43EB030218BF4FF0010E4EEA420218
:1044C000ACF1200CDCF11E0E54D943FA0CFE10EBBB
:1044D0000E0051F1FF31CCF11E0ED5D50EF1010EBB
:1044E00012FA0EFE404141EB010101EB445C5FEA30
:1044F0005C5C10D910EBDE7001EB045138BFBEF1EB
:10450000004FBDE8104018BF704700280CBF491C81
:1045100020F00100704730D24FEAD42C11F5001181
:1045200024F400641BD0B1FA81F20B3AA41AA41E41
:10453000D2F12003914030FA03F31943904001EB8C
:10454000CC71002C01EB0451BDE81040A8BF7047AE
:1045500001F1C0414FF0000001F000417047B0FA96
:1045600080F310FA03F100D110BDE41A173C48059E
:10457000C90AE4E701EB045110BD491001EB0451F5
:10458000BDE810404FEA300002E04FF000017047F4
:104590004A0008BF0042F8D0B2F5001F28BF70479C
:1045A00001F000414FF0000070479EEA445F07D0E1
:1045B00011EA5E0FBDE8104004BF002100207047E3
:1045C000BDE8104070B5FFF7CBFE00BF40DFF63E00
:1045D00083F00041104670470000E0FF43004FEABF
:1045E000D30C4FEA3C0C43401FBF40070CF1605115
:1045F00013F0FE4F70471CF0006F03D100200CF049
:10460000004170470CF0004343EA507010B540EA97
:10461000CC0000F0B0F800BF000000924FEA0001AB
:10462000FFF7ECBE4FF000414FF00000A1F5002174
:1046300070470000C10DD1F19E0206DB4FEA002356
:1046400043F0004323FA02F07047004207D54FEAD7
:104650004001B1F1FE4F02D24FF00000704710B59B
:1046600000F089F849922480002070476FEA20000A
:10467000704700004FF47F0C1CEAD0121EBF1CEAEA
:10468000D11392EA0C0F93EA0C0F00F0478090EAE6
:10469000010F48BF42F480724FF0004C4CEA0020FA
:1046A0004CEA012102EB0302A0FB0113A2F5000278
:1046B000002918BF43F001035B0028BF4FEA330312
:1046C00042EB22425FEA132C4CEBC2502EBFBCEBF4
:1046D000436FB2F57C0F70474FEA036CBCF1004F9B
:1046E00008BF20F00100B2F57C0F38BF70470BD532
:1046F00082F0FF0212F5803FC8BF704700F1C04052
:10470000D8BF00F00040704700F5000C5FEA4C0C89
:1047100048BF7047B0F1C04000F073B890EA010F95
:104720000CEAD11348BF42F48072624538BF63453A
:1047300004D280EA010000F00040704710B500F09C
:104740001AF800BF8900013E00F007B800F009B870
:104750005FEA410C5FEA1C6C08D080EA010000F0BF
:1047600050B85FEA400C5FEA1C6CF6D14FF0004095
:10477000A0F5800070470EF1020E2EF0030E5EF8D9
:10478000044B244204D44FEA4102B2F17F4F11D8C6
:104790004FEA4003B3F17F4F0CD80ED14FEAD07CE3
:1047A000B2F17F4F0CEB4C0C0CF1020C08BF4CEB40
:1047B000D17C04E04FF0080C01E04FEAD17C0CEB17
:1047C0004C0324FA03F404F00704B4F1040C06D2F9
:1047D0000EEB840CBDE810404CF0010C6047DFE8A4
:1047E0000CF0070802024FF00040A0F5800010BD59
:1047F0000846420018BFD2F1807288BF00F0004026
:1048000010BDFF2141EAD050C00570472C48000878
:10481000000000207C0000006C010008A84800088F
:104820007C0000202C070000880100080080BB44A9
:104830000080BB440080BB440080BB440040BB44BC
:104840000080BB440080BB440080BB440080BB446C
:104850000080BB440040BB440080BB440080BB449C
:104860000080BB440080BB440080BB440040BB448C
:104870000080BB4400A24A040000000000000000C9
:104880000102030406070809000000000000000000
:1048900000000000000001020304010203040607F7
:0848A0000809020406080000EB
:0400000508000131BD
:00000001FF
